{
  "_format": "hh-sol-artifact-1",
  "contractName": "Vault",
  "sourceName": "contracts/Vault.sol",
  "abi": [
    {
      "inputs": [
        {
          "internalType": "uint256",
          "name": "value",
          "type": "uint256"
        }
      ],
      "name": "BadRange",
      "type": "error"
    },
    {
      "inputs": [
        {
          "internalType": "bytes",
          "name": "swapTx",
          "type": "bytes"
        },
        {
          "internalType": "bytes",
          "name": "result",
          "type": "bytes"
        }
      ],
      "name": "DexAggSwap",
      "type": "error"
    },
    {
      "inputs": [
        {
          "internalType": "uint256",
          "name": "toMint",
          "type": "uint256"
        }
      ],
      "name": "HarvestTooLow",
      "type": "error"
    },
    {
      "inputs": [],
      "name": "InvalidDepositSwapToken",
      "type": "error"
    },
    {
      "inputs": [],
      "name": "InvalidRedeemSwapAmount",
      "type": "error"
    },
    {
      "inputs": [],
      "name": "InvalidRedeemSwapToken",
      "type": "error"
    },
    {
      "inputs": [
        {
          "internalType": "uint256",
          "name": "amount",
          "type": "uint256"
        }
      ],
      "name": "MaxAUM",
      "type": "error"
    },
    {
      "inputs": [
        {
          "internalType": "uint256",
          "name": "amount",
          "type": "uint256"
        }
      ],
      "name": "MaxDeposit",
      "type": "error"
    },
    {
      "inputs": [
        {
          "internalType": "uint256",
          "name": "amount",
          "type": "uint256"
        }
      ],
      "name": "MinDeposit",
      "type": "error"
    },
    {
      "inputs": [],
      "name": "MintZero",
      "type": "error"
    },
    {
      "inputs": [],
      "name": "Paused",
      "type": "error"
    },
    {
      "inputs": [
        {
          "internalType": "uint256",
          "name": "sumPosition",
          "type": "uint256"
        }
      ],
      "name": "PositionRange",
      "type": "error"
    },
    {
      "inputs": [],
      "name": "PriceFeedMatch",
      "type": "error"
    },
    {
      "inputs": [],
      "name": "PriceFeedPrecision",
      "type": "error"
    },
    {
      "inputs": [
        {
          "internalType": "uint256",
          "name": "worthBaseTokenDue",
          "type": "uint256"
        },
        {
          "internalType": "uint256",
          "name": "maxToRedeem",
          "type": "uint256"
        }
      ],
      "name": "RedeemMax",
      "type": "error"
    },
    {
      "inputs": [
        {
          "internalType": "uint256",
          "name": "worthBaseTokenDue",
          "type": "uint256"
        },
        {
          "internalType": "uint256",
          "name": "minToRedeem",
          "type": "uint256"
        }
      ],
      "name": "RedeemMin",
      "type": "error"
    },
    {
      "inputs": [
        {
          "internalType": "uint256",
          "name": "",
          "type": "uint256"
        }
      ],
      "name": "RedeemTooLow",
      "type": "error"
    },
    {
      "inputs": [
        {
          "internalType": "enum Vault.ActionType",
          "name": "action",
          "type": "uint8"
        }
      ],
      "name": "SwapExecution",
      "type": "error"
    },
    {
      "inputs": [
        {
          "internalType": "uint256",
          "name": "amountInWorth",
          "type": "uint256"
        },
        {
          "internalType": "uint256",
          "name": "amountOutWorth",
          "type": "uint256"
        }
      ],
      "name": "SwapOutput",
      "type": "error"
    },
    {
      "inputs": [],
      "name": "SwapToSameAsset",
      "type": "error"
    },
    {
      "inputs": [
        {
          "internalType": "uint256",
          "name": "time",
          "type": "uint256"
        }
      ],
      "name": "TimeLock",
      "type": "error"
    },
    {
      "inputs": [],
      "name": "TokenPresent",
      "type": "error"
    },
    {
      "inputs": [
        {
          "internalType": "address",
          "name": "user",
          "type": "address"
        }
      ],
      "name": "Unauthorized",
      "type": "error"
    },
    {
      "inputs": [
        {
          "internalType": "address",
          "name": "token",
          "type": "address"
        }
      ],
      "name": "UnknownToken",
      "type": "error"
    },
    {
      "anonymous": false,
      "inputs": [
        {
          "indexed": false,
          "internalType": "address",
          "name": "newAsset",
          "type": "address"
        }
      ],
      "name": "AddAsset",
      "type": "event"
    },
    {
      "anonymous": false,
      "inputs": [
        {
          "indexed": false,
          "internalType": "uint256",
          "name": "baseTokenAmountIn",
          "type": "uint256"
        },
        {
          "indexed": false,
          "internalType": "uint256",
          "name": "sharesMinted",
          "type": "uint256"
        }
      ],
      "name": "Deposit",
      "type": "event"
    },
    {
      "anonymous": false,
      "inputs": [
        {
          "indexed": false,
          "internalType": "uint256",
          "name": "amountToDAO",
          "type": "uint256"
        },
        {
          "indexed": false,
          "internalType": "uint256",
          "name": "amountToStrategist",
          "type": "uint256"
        }
      ],
      "name": "HarvestManagementFees",
      "type": "event"
    },
    {
      "anonymous": false,
      "inputs": [
        {
          "indexed": false,
          "internalType": "uint256",
          "name": "amountToDAO",
          "type": "uint256"
        },
        {
          "indexed": false,
          "internalType": "uint256",
          "name": "amountToStrategist",
          "type": "uint256"
        }
      ],
      "name": "HarvestPerformanceFees",
      "type": "event"
    },
    {
      "anonymous": false,
      "inputs": [
        {
          "indexed": false,
          "internalType": "uint8",
          "name": "version",
          "type": "uint8"
        }
      ],
      "name": "Initialized",
      "type": "event"
    },
    {
      "anonymous": false,
      "inputs": [
        {
          "indexed": false,
          "internalType": "uint256[]",
          "name": "currentSignals",
          "type": "uint256[]"
        },
        {
          "indexed": false,
          "internalType": "uint256[]",
          "name": "desiredSignals",
          "type": "uint256[]"
        }
      ],
      "name": "Rebalance",
      "type": "event"
    },
    {
      "anonymous": false,
      "inputs": [
        {
          "indexed": false,
          "internalType": "uint256",
          "name": "amountReceived",
          "type": "uint256"
        },
        {
          "indexed": false,
          "internalType": "uint256",
          "name": "shareBurned",
          "type": "uint256"
        }
      ],
      "name": "Redeem",
      "type": "event"
    },
    {
      "anonymous": false,
      "inputs": [
        {
          "indexed": true,
          "internalType": "bytes32",
          "name": "role",
          "type": "bytes32"
        },
        {
          "indexed": true,
          "internalType": "bytes32",
          "name": "previousAdminRole",
          "type": "bytes32"
        },
        {
          "indexed": true,
          "internalType": "bytes32",
          "name": "newAdminRole",
          "type": "bytes32"
        }
      ],
      "name": "RoleAdminChanged",
      "type": "event"
    },
    {
      "anonymous": false,
      "inputs": [
        {
          "indexed": true,
          "internalType": "bytes32",
          "name": "role",
          "type": "bytes32"
        },
        {
          "indexed": true,
          "internalType": "address",
          "name": "account",
          "type": "address"
        },
        {
          "indexed": true,
          "internalType": "address",
          "name": "sender",
          "type": "address"
        }
      ],
      "name": "RoleGranted",
      "type": "event"
    },
    {
      "anonymous": false,
      "inputs": [
        {
          "indexed": true,
          "internalType": "bytes32",
          "name": "role",
          "type": "bytes32"
        },
        {
          "indexed": true,
          "internalType": "address",
          "name": "account",
          "type": "address"
        },
        {
          "indexed": true,
          "internalType": "address",
          "name": "sender",
          "type": "address"
        }
      ],
      "name": "RoleRevoked",
      "type": "event"
    },
    {
      "anonymous": false,
      "inputs": [
        {
          "components": [
            {
              "internalType": "bool",
              "name": "paused",
              "type": "bool"
            },
            {
              "internalType": "uint8",
              "name": "verified",
              "type": "uint8"
            },
            {
              "internalType": "string",
              "name": "name",
              "type": "string"
            },
            {
              "internalType": "string",
              "name": "description",
              "type": "string"
            }
          ],
          "indexed": false,
          "internalType": "struct VLib.ConfigProps",
          "name": "feesProps",
          "type": "tuple"
        }
      ],
      "name": "SetConfigProps",
      "type": "event"
    },
    {
      "anonymous": false,
      "inputs": [
        {
          "components": [
            {
              "internalType": "address",
              "name": "beneficiary",
              "type": "address"
            },
            {
              "internalType": "uint256",
              "name": "exitFees",
              "type": "uint256"
            },
            {
              "internalType": "uint256",
              "name": "managementFeesRate",
              "type": "uint256"
            },
            {
              "internalType": "uint256",
              "name": "managementFeesToStrategist",
              "type": "uint256"
            },
            {
              "internalType": "uint256",
              "name": "performanceFeesRate",
              "type": "uint256"
            },
            {
              "internalType": "uint256",
              "name": "performanceFeesToStrategist",
              "type": "uint256"
            }
          ],
          "indexed": false,
          "internalType": "struct VLib.FeesProps",
          "name": "feesProps",
          "type": "tuple"
        }
      ],
      "name": "SetFeesProps",
      "type": "event"
    },
    {
      "anonymous": false,
      "inputs": [
        {
          "components": [
            {
              "internalType": "uint256",
              "name": "maxAUM",
              "type": "uint256"
            },
            {
              "internalType": "uint256",
              "name": "maxLossSwap",
              "type": "uint256"
            },
            {
              "internalType": "uint256",
              "name": "minAmountDeposit",
              "type": "uint256"
            },
            {
              "internalType": "uint256",
              "name": "maxAmountDeposit",
              "type": "uint256"
            },
            {
              "internalType": "uint256",
              "name": "minFrequencySwap",
              "type": "uint256"
            },
            {
              "internalType": "uint256",
              "name": "minSecurityTime",
              "type": "uint256"
            },
            {
              "internalType": "uint256",
              "name": "minHarvestThreshold",
              "type": "uint256"
            }
          ],
          "indexed": false,
          "internalType": "struct VLib.SecurityProps",
          "name": "feesProps",
          "type": "tuple"
        }
      ],
      "name": "SetSecurityProps",
      "type": "event"
    },
    {
      "anonymous": false,
      "inputs": [
        {
          "indexed": false,
          "internalType": "bool",
          "name": "status",
          "type": "bool"
        }
      ],
      "name": "SetShareTransferability",
      "type": "event"
    },
    {
      "inputs": [],
      "name": "DEFAULT_ADMIN_ROLE",
      "outputs": [
        {
          "internalType": "bytes32",
          "name": "",
          "type": "bytes32"
        }
      ],
      "stateMutability": "view",
      "type": "function"
    },
    {
      "inputs": [],
      "name": "HARVESTER_ROLE",
      "outputs": [
        {
          "internalType": "bytes32",
          "name": "",
          "type": "bytes32"
        }
      ],
      "stateMutability": "view",
      "type": "function"
    },
    {
      "inputs": [],
      "name": "STRATEGIST_ROLE",
      "outputs": [
        {
          "internalType": "bytes32",
          "name": "",
          "type": "bytes32"
        }
      ],
      "stateMutability": "view",
      "type": "function"
    },
    {
      "inputs": [
        {
          "internalType": "address",
          "name": "_token",
          "type": "address"
        }
      ],
      "name": "addVaultAsset",
      "outputs": [],
      "stateMutability": "nonpayable",
      "type": "function"
    },
    {
      "inputs": [
        {
          "internalType": "uint256[]",
          "name": "_amounts",
          "type": "uint256[]"
        }
      ],
      "name": "approveForSwap",
      "outputs": [],
      "stateMutability": "nonpayable",
      "type": "function"
    },
    {
      "inputs": [
        {
          "internalType": "uint256",
          "name": "_baseTokenAmountIn",
          "type": "uint256"
        },
        {
          "internalType": "bytes[]",
          "name": "_swapTxs",
          "type": "bytes[]"
        }
      ],
      "name": "deposit",
      "outputs": [],
      "stateMutability": "nonpayable",
      "type": "function"
    },
    {
      "inputs": [],
      "name": "getConfigProps",
      "outputs": [
        {
          "components": [
            {
              "internalType": "bool",
              "name": "paused",
              "type": "bool"
            },
            {
              "internalType": "uint8",
              "name": "verified",
              "type": "uint8"
            },
            {
              "internalType": "string",
              "name": "name",
              "type": "string"
            },
            {
              "internalType": "string",
              "name": "description",
              "type": "string"
            }
          ],
          "internalType": "struct VLib.ConfigProps",
          "name": "",
          "type": "tuple"
        }
      ],
      "stateMutability": "view",
      "type": "function"
    },
    {
      "inputs": [],
      "name": "getConstantProps",
      "outputs": [
        {
          "components": [
            {
              "internalType": "address",
              "name": "factory",
              "type": "address"
            },
            {
              "internalType": "uint256",
              "name": "createdAt",
              "type": "uint256"
            },
            {
              "internalType": "address",
              "name": "share",
              "type": "address"
            }
          ],
          "internalType": "struct VLib.ConstantProps",
          "name": "",
          "type": "tuple"
        }
      ],
      "stateMutability": "view",
      "type": "function"
    },
    {
      "inputs": [],
      "name": "getFeesProps",
      "outputs": [
        {
          "components": [
            {
              "internalType": "address",
              "name": "beneficiary",
              "type": "address"
            },
            {
              "internalType": "uint256",
              "name": "exitFees",
              "type": "uint256"
            },
            {
              "internalType": "uint256",
              "name": "managementFeesRate",
              "type": "uint256"
            },
            {
              "internalType": "uint256",
              "name": "managementFeesToStrategist",
              "type": "uint256"
            },
            {
              "internalType": "uint256",
              "name": "performanceFeesRate",
              "type": "uint256"
            },
            {
              "internalType": "uint256",
              "name": "performanceFeesToStrategist",
              "type": "uint256"
            }
          ],
          "internalType": "struct VLib.FeesProps",
          "name": "",
          "type": "tuple"
        }
      ],
      "stateMutability": "view",
      "type": "function"
    },
    {
      "inputs": [],
      "name": "getHistoryProps",
      "outputs": [
        {
          "components": [
            {
              "internalType": "uint256",
              "name": "highWaterMark",
              "type": "uint256"
            },
            {
              "internalType": "uint256[]",
              "name": "prevRebalanceSignals",
              "type": "uint256[]"
            },
            {
              "internalType": "uint256",
              "name": "prevSwap",
              "type": "uint256"
            },
            {
              "internalType": "uint256",
              "name": "prevMngHarvest",
              "type": "uint256"
            }
          ],
          "internalType": "struct VLib.HistoryProps",
          "name": "",
          "type": "tuple"
        }
      ],
      "stateMutability": "view",
      "type": "function"
    },
    {
      "inputs": [
        {
          "internalType": "address",
          "name": "_priceFeed",
          "type": "address"
        }
      ],
      "name": "getLatestPrice",
      "outputs": [
        {
          "internalType": "uint256",
          "name": "",
          "type": "uint256"
        }
      ],
      "stateMutability": "view",
      "type": "function"
    },
    {
      "inputs": [],
      "name": "getManagementFees",
      "outputs": [
        {
          "internalType": "uint256",
          "name": "toMint",
          "type": "uint256"
        },
        {
          "internalType": "uint256",
          "name": "sharePrice",
          "type": "uint256"
        }
      ],
      "stateMutability": "view",
      "type": "function"
    },
    {
      "inputs": [],
      "name": "getPerformanceFees",
      "outputs": [
        {
          "internalType": "uint256",
          "name": "toMint",
          "type": "uint256"
        },
        {
          "internalType": "uint256",
          "name": "sharePrice",
          "type": "uint256"
        }
      ],
      "stateMutability": "view",
      "type": "function"
    },
    {
      "inputs": [
        {
          "internalType": "bytes32",
          "name": "role",
          "type": "bytes32"
        }
      ],
      "name": "getRoleAdmin",
      "outputs": [
        {
          "internalType": "bytes32",
          "name": "",
          "type": "bytes32"
        }
      ],
      "stateMutability": "view",
      "type": "function"
    },
    {
      "inputs": [
        {
          "internalType": "bytes32",
          "name": "role",
          "type": "bytes32"
        },
        {
          "internalType": "uint256",
          "name": "index",
          "type": "uint256"
        }
      ],
      "name": "getRoleMember",
      "outputs": [
        {
          "internalType": "address",
          "name": "",
          "type": "address"
        }
      ],
      "stateMutability": "view",
      "type": "function"
    },
    {
      "inputs": [
        {
          "internalType": "bytes32",
          "name": "role",
          "type": "bytes32"
        }
      ],
      "name": "getRoleMemberCount",
      "outputs": [
        {
          "internalType": "uint256",
          "name": "",
          "type": "uint256"
        }
      ],
      "stateMutability": "view",
      "type": "function"
    },
    {
      "inputs": [],
      "name": "getSecurityProps",
      "outputs": [
        {
          "components": [
            {
              "internalType": "uint256",
              "name": "maxAUM",
              "type": "uint256"
            },
            {
              "internalType": "uint256",
              "name": "maxLossSwap",
              "type": "uint256"
            },
            {
              "internalType": "uint256",
              "name": "minAmountDeposit",
              "type": "uint256"
            },
            {
              "internalType": "uint256",
              "name": "maxAmountDeposit",
              "type": "uint256"
            },
            {
              "internalType": "uint256",
              "name": "minFrequencySwap",
              "type": "uint256"
            },
            {
              "internalType": "uint256",
              "name": "minSecurityTime",
              "type": "uint256"
            },
            {
              "internalType": "uint256",
              "name": "minHarvestThreshold",
              "type": "uint256"
            }
          ],
          "internalType": "struct VLib.SecurityProps",
          "name": "",
          "type": "tuple"
        }
      ],
      "stateMutability": "view",
      "type": "function"
    },
    {
      "inputs": [],
      "name": "getVaultBalances",
      "outputs": [
        {
          "internalType": "uint256[]",
          "name": "balances",
          "type": "uint256[]"
        }
      ],
      "stateMutability": "view",
      "type": "function"
    },
    {
      "inputs": [],
      "name": "getVaultStatus",
      "outputs": [
        {
          "internalType": "uint256[]",
          "name": "positions",
          "type": "uint256[]"
        },
        {
          "internalType": "uint256",
          "name": "vvl",
          "type": "uint256"
        },
        {
          "internalType": "uint256",
          "name": "sharePrice",
          "type": "uint256"
        }
      ],
      "stateMutability": "view",
      "type": "function"
    },
    {
      "inputs": [
        {
          "internalType": "bytes32",
          "name": "role",
          "type": "bytes32"
        },
        {
          "internalType": "address",
          "name": "account",
          "type": "address"
        }
      ],
      "name": "grantRole",
      "outputs": [],
      "stateMutability": "nonpayable",
      "type": "function"
    },
    {
      "inputs": [],
      "name": "harvestManagementFees",
      "outputs": [],
      "stateMutability": "nonpayable",
      "type": "function"
    },
    {
      "inputs": [],
      "name": "harvestPerformanceFees",
      "outputs": [],
      "stateMutability": "nonpayable",
      "type": "function"
    },
    {
      "inputs": [
        {
          "internalType": "bytes32",
          "name": "role",
          "type": "bytes32"
        },
        {
          "internalType": "address",
          "name": "account",
          "type": "address"
        }
      ],
      "name": "hasRole",
      "outputs": [
        {
          "internalType": "bool",
          "name": "",
          "type": "bool"
        }
      ],
      "stateMutability": "view",
      "type": "function"
    },
    {
      "inputs": [
        {
          "internalType": "address[]",
          "name": "_tokensAddresses",
          "type": "address[]"
        },
        {
          "components": [
            {
              "internalType": "string",
              "name": "vaultName",
              "type": "string"
            },
            {
              "internalType": "string",
              "name": "description",
              "type": "string"
            },
            {
              "internalType": "string",
              "name": "shareName",
              "type": "string"
            },
            {
              "internalType": "string",
              "name": "shareSymbol",
              "type": "string"
            },
            {
              "internalType": "address",
              "name": "strategist",
              "type": "address"
            }
          ],
          "internalType": "struct VLib.CreationProps",
          "name": "_creationProps",
          "type": "tuple"
        },
        {
          "components": [
            {
              "internalType": "address",
              "name": "beneficiary",
              "type": "address"
            },
            {
              "internalType": "uint256",
              "name": "exitFees",
              "type": "uint256"
            },
            {
              "internalType": "uint256",
              "name": "managementFeesRate",
              "type": "uint256"
            },
            {
              "internalType": "uint256",
              "name": "managementFeesToStrategist",
              "type": "uint256"
            },
            {
              "internalType": "uint256",
              "name": "performanceFeesRate",
              "type": "uint256"
            },
            {
              "internalType": "uint256",
              "name": "performanceFeesToStrategist",
              "type": "uint256"
            }
          ],
          "internalType": "struct VLib.FeesProps",
          "name": "_feesProps",
          "type": "tuple"
        },
        {
          "components": [
            {
              "internalType": "uint256",
              "name": "maxAUM",
              "type": "uint256"
            },
            {
              "internalType": "uint256",
              "name": "maxLossSwap",
              "type": "uint256"
            },
            {
              "internalType": "uint256",
              "name": "minAmountDeposit",
              "type": "uint256"
            },
            {
              "internalType": "uint256",
              "name": "maxAmountDeposit",
              "type": "uint256"
            },
            {
              "internalType": "uint256",
              "name": "minFrequencySwap",
              "type": "uint256"
            },
            {
              "internalType": "uint256",
              "name": "minSecurityTime",
              "type": "uint256"
            },
            {
              "internalType": "uint256",
              "name": "minHarvestThreshold",
              "type": "uint256"
            }
          ],
          "internalType": "struct VLib.SecurityProps",
          "name": "_securityProps",
          "type": "tuple"
        }
      ],
      "name": "initialize",
      "outputs": [],
      "stateMutability": "nonpayable",
      "type": "function"
    },
    {
      "inputs": [
        {
          "internalType": "uint256[]",
          "name": "_signals",
          "type": "uint256[]"
        },
        {
          "internalType": "bytes[]",
          "name": "_swapTxs",
          "type": "bytes[]"
        }
      ],
      "name": "rebalance",
      "outputs": [],
      "stateMutability": "nonpayable",
      "type": "function"
    },
    {
      "inputs": [
        {
          "internalType": "uint256",
          "name": "_amountIn",
          "type": "uint256"
        },
        {
          "internalType": "bytes[]",
          "name": "_swapTxs",
          "type": "bytes[]"
        }
      ],
      "name": "redeem",
      "outputs": [],
      "stateMutability": "nonpayable",
      "type": "function"
    },
    {
      "inputs": [
        {
          "internalType": "uint256",
          "name": "_amountIn",
          "type": "uint256"
        }
      ],
      "name": "redeemEach",
      "outputs": [],
      "stateMutability": "nonpayable",
      "type": "function"
    },
    {
      "inputs": [
        {
          "internalType": "address",
          "name": "_user",
          "type": "address"
        },
        {
          "internalType": "uint256",
          "name": "_amountIn",
          "type": "uint256"
        }
      ],
      "name": "redeemForced",
      "outputs": [],
      "stateMutability": "nonpayable",
      "type": "function"
    },
    {
      "inputs": [
        {
          "internalType": "bytes32",
          "name": "role",
          "type": "bytes32"
        },
        {
          "internalType": "address",
          "name": "account",
          "type": "address"
        }
      ],
      "name": "renounceRole",
      "outputs": [],
      "stateMutability": "nonpayable",
      "type": "function"
    },
    {
      "inputs": [
        {
          "internalType": "bytes32",
          "name": "role",
          "type": "bytes32"
        },
        {
          "internalType": "address",
          "name": "account",
          "type": "address"
        }
      ],
      "name": "revokeRole",
      "outputs": [],
      "stateMutability": "nonpayable",
      "type": "function"
    },
    {
      "inputs": [
        {
          "components": [
            {
              "internalType": "bool",
              "name": "paused",
              "type": "bool"
            },
            {
              "internalType": "uint8",
              "name": "verified",
              "type": "uint8"
            },
            {
              "internalType": "string",
              "name": "name",
              "type": "string"
            },
            {
              "internalType": "string",
              "name": "description",
              "type": "string"
            }
          ],
          "internalType": "struct VLib.ConfigProps",
          "name": "_configProps",
          "type": "tuple"
        }
      ],
      "name": "setConfigProps",
      "outputs": [],
      "stateMutability": "nonpayable",
      "type": "function"
    },
    {
      "inputs": [
        {
          "components": [
            {
              "internalType": "address",
              "name": "beneficiary",
              "type": "address"
            },
            {
              "internalType": "uint256",
              "name": "exitFees",
              "type": "uint256"
            },
            {
              "internalType": "uint256",
              "name": "managementFeesRate",
              "type": "uint256"
            },
            {
              "internalType": "uint256",
              "name": "managementFeesToStrategist",
              "type": "uint256"
            },
            {
              "internalType": "uint256",
              "name": "performanceFeesRate",
              "type": "uint256"
            },
            {
              "internalType": "uint256",
              "name": "performanceFeesToStrategist",
              "type": "uint256"
            }
          ],
          "internalType": "struct VLib.FeesProps",
          "name": "_feesProps",
          "type": "tuple"
        }
      ],
      "name": "setFeesProps",
      "outputs": [],
      "stateMutability": "nonpayable",
      "type": "function"
    },
    {
      "inputs": [
        {
          "components": [
            {
              "internalType": "uint256",
              "name": "maxAUM",
              "type": "uint256"
            },
            {
              "internalType": "uint256",
              "name": "maxLossSwap",
              "type": "uint256"
            },
            {
              "internalType": "uint256",
              "name": "minAmountDeposit",
              "type": "uint256"
            },
            {
              "internalType": "uint256",
              "name": "maxAmountDeposit",
              "type": "uint256"
            },
            {
              "internalType": "uint256",
              "name": "minFrequencySwap",
              "type": "uint256"
            },
            {
              "internalType": "uint256",
              "name": "minSecurityTime",
              "type": "uint256"
            },
            {
              "internalType": "uint256",
              "name": "minHarvestThreshold",
              "type": "uint256"
            }
          ],
          "internalType": "struct VLib.SecurityProps",
          "name": "_securityProps",
          "type": "tuple"
        }
      ],
      "name": "setSecurityProps",
      "outputs": [],
      "stateMutability": "nonpayable",
      "type": "function"
    },
    {
      "inputs": [
        {
          "internalType": "bool",
          "name": "_status",
          "type": "bool"
        }
      ],
      "name": "setShareTransferability",
      "outputs": [],
      "stateMutability": "nonpayable",
      "type": "function"
    },
    {
      "inputs": [
        {
          "internalType": "bytes4",
          "name": "interfaceId",
          "type": "bytes4"
        }
      ],
      "name": "supportsInterface",
      "outputs": [
        {
          "internalType": "bool",
          "name": "",
          "type": "bool"
        }
      ],
      "stateMutability": "view",
      "type": "function"
    },
    {
      "inputs": [
        {
          "internalType": "uint256",
          "name": "",
          "type": "uint256"
        }
      ],
      "name": "tokens",
      "outputs": [
        {
          "internalType": "address",
          "name": "tokenAddress",
          "type": "address"
        },
        {
          "internalType": "address",
          "name": "priceFeedAddress",
          "type": "address"
        },
        {
          "internalType": "uint8",
          "name": "priceFeedPrecision",
          "type": "uint8"
        },
        {
          "internalType": "uint256",
          "name": "denominator",
          "type": "uint256"
        }
      ],
      "stateMutability": "view",
      "type": "function"
    },
    {
      "inputs": [],
      "name": "tokensLength",
      "outputs": [
        {
          "internalType": "uint256",
          "name": "",
          "type": "uint256"
        }
      ],
      "stateMutability": "view",
      "type": "function"
    }
  ],
  "bytecode": "0x608060405234801561001057600080fd5b50615d1780620000216000396000f3fe608060405234801561001057600080fd5b50600436106101f75760003560e01c80637dedcf9211610120578063c3c058f4116100b8578063f17934231161007c578063f17934231461052f578063f2b51afe14610542578063f3451f6c14610555578063f51f3ab214610568578063ffab85731461057057600080fd5b8063c3c058f4146104db578063ca15c873146104ee578063cf5bbaf814610501578063d547741f14610514578063d92fc67b1461052757600080fd5b80637dedcf92146103c1578063811fe3ad146103d6578063830b4980146104575780639010d07c1461046c57806391d148541461048c578063a217fddf1461049f578063a378a324146104a7578063aede67ea146104bc578063bad52597146104d357600080fd5b806336568abe1161019357806336568abe146102e85780634237d77d146102fb5780634aea3c1c146103105780634f64b2be1461032357806355003e021461036957806363a560ec1461037c5780636522e3f3146103915780636de4badc146103a65780637296ea59146103ae57600080fd5b806301ffc9a7146101fc5780630b2be31e1461022457806316345f1814610239578063223706851461025a57806323224ac81461026f578063248a9ca31461028c5780632f2ff15d146102af57806333d19e02146102c25780633616c889146102d5575b600080fd5b61020f61020a366004614e5a565b610583565b60405190151581526020015b60405180910390f35b610237610232366004614ef2565b6105ae565b005b61024c610247366004614f8a565b610668565b60405190815260200161021b565b6102626106e8565b60405161021b9190614fe2565b610277610821565b6040805192835260208301919091520161021b565b61024c61029a366004614ff5565b60009081526065602052604090206001015490565b6102376102bd36600461500e565b61093a565b6102376102d03660046150cc565b610964565b6102376102e336600461514b565b610b48565b6102376102f636600461500e565b61100b565b610303611089565b60405161021b91906151ee565b61023761031e3660046152dd565b6111ff565b610336610331366004614ff5565b6112a1565b604080516001600160a01b03958616815294909316602085015260ff90911691830191909152606082015260800161021b565b610237610377366004615393565b6112ed565b61024c600080516020615ca283398151915281565b610399611304565b60405161021b91906153bf565b610237611390565b6102376103bc36600461540d565b611433565b6103c9611510565b60405161021b919061542a565b6104276040805160608101825260008082526020820181905291810191909152506040805160608101825260fd546001600160a01b03908116825260fe54602083015260ff54169181019190915290565b6040805182516001600160a01b03908116825260208085015190830152928201519092169082015260600161021b565b61045f6115c4565b60405161021b919061549a565b61047f61047a3660046154e2565b611652565b60405161021b9190615504565b61020f61049a36600461500e565b611671565b61024c600081565b61024c600080516020615cc283398151915281565b6104c461169c565b60405161021b93929190615518565b610277611a1f565b6102376104e936600461553d565b611b0e565b61024c6104fc366004614ff5565b611d0e565b61023761050f366004615598565b611d25565b61023761052236600461500e565b612526565b60fb5461024c565b61023761053d36600461563f565b61254b565b610237610550366004614ff5565b6126f0565b610237610563366004614f8a565b61270e565b610237612b64565b61023761057e36600461514b565b612c0c565b60006001600160e01b03198216635a05180f60e01b14806105a857506105a8826131cf565b92915050565b60006105b981613204565b611388826020015111156105f157816020015160405163031dc50960e61b81526004016105e891815260200190565b60405180910390fd5b815161010d55602082015161010e5560408083015161010f5560608301516101105560808301516101115560a08301516101125560c083015161011355517fb659a79e6fcff04b4507d59843f93da2edd0b1a995e02164c48e8c9b5c1113279061065c9084906153bf565b60405180910390a15050565b600080826001600160a01b031663feaf968c6040518163ffffffff1660e01b815260040160a06040518083038186803b1580156106a457600080fd5b505afa1580156106b8573d6000803e3d6000fd5b505050506040513d601f19601f820116820180604052508101906106dc91906156db565b50919695505050505050565b606060006106f560fb5490565b9050806001600160401b0381111561070f5761070f614e84565b604051908082528060200260200182016040528015610738578160200160208202803683370190505b50915060005b8181101561081c57600060fb828154811061075b5761075b61572b565b60009182526020909120600390910201546040516370a0823160e01b81526001600160a01b03909116915081906370a082319061079c903090600401615504565b60206040518083038186803b1580156107b457600080fd5b505afa1580156107c8573d6000803e3d6000fd5b505050506040513d601f19601f820116820180604052508101906107ec9190615741565b8483815181106107fe576107fe61572b565b6020908102919091010152508061081481615770565b91505061073e565b505090565b600080600060fd60020160009054906101000a90046001600160a01b03166001600160a01b03166318160ddd6040518163ffffffff1660e01b815260040160206040518083038186803b15801561087757600080fd5b505afa15801561088b573d6000803e3d6000fd5b505050506040513d601f19601f820116820180604052508101906108af9190615741565b90506108b961169c565b610100549094509150508083111561092f5761010b54600090612710906108e46305f5e1008661578b565b6108ee85886157ad565b6108f891906157c4565b61090291906157c4565b61090c919061578b565b90508361091d6305f5e100836157c4565b610927919061578b565b945050610934565b600093505b50509091565b60008281526065602052604090206001015461095581613204565b61095f838361320e565b505050565b6101045460ff1615610989576040516313d0ff5960e31b815260040160405180910390fd5b610991613230565b600061099c81613204565b60fd54604080516306ec4be960e41b815290516000926001600160a01b031691636ec4be90916004808301926020929190829003018186803b1580156109e157600080fd5b505afa1580156109f5573d6000803e3d6000fd5b505050506040513d601f19601f82011682018060405250810190610a1991906157e3565b9050600060fb805480602002602001604051908101604052809291908181526020016000905b82821015610aa7576000848152602090819020604080516080810182526003860290920180546001600160a01b03908116845260018083015491821685870152600160a01b90910460ff16928401929092526002015460608301529083529092019101610a3f565b50505050905060005b8151811015610b3757610af5836000848481518110610ad157610ad161572b565b6020026020010151600001516001600160a01b031661328a9092919063ffffffff16565b610b2583868381518110610b0b57610b0b61572b565b6020026020010151848481518110610ad157610ad161572b565b80610b2f81615770565b915050610ab0565b50505050610b45600160c955565b50565b6101045460ff1615610b6d576040516313d0ff5960e31b815260040160405180910390fd5b610b75613230565b82610b96576040516324171d7360e01b8152600481018490526024016105e8565b6101125433600090815260fc60205260408120549091610bb591615800565b9050428110610bda576040516353d5558560e01b8152600481018290526024016105e8565b60ff54604080516318160ddd60e01b815290516000926001600160a01b0316916318160ddd916004808301926020929190829003018186803b158015610c1f57600080fd5b505afa158015610c33573d6000803e3d6000fd5b505050506040513d601f19601f82011682018060405250810190610c579190615741565b9050600080610c6461169c565b92505091506000612710806032610c7b9190615800565b6305f5e100610c8a858c6157c4565b610c94919061578b565b610c9e91906157c4565b610ca8919061578b565b9050600061271061010d60010154612710610cc391906157ad565b6305f5e100610cd2868d6157c4565b610cdc919061578b565b610ce691906157c4565b610cf0919061578b565b60ff5460405163079cc67960e41b81529192506001600160a01b0316906379cc679090610d239033908d90600401615818565b600060405180830381600087803b158015610d3d57600080fd5b505af1158015610d51573d6000803e3d6000fd5b50505050600060fb600081548110610d6b57610d6b61572b565b600091825260208083206040805160808101825260039490940290910180546001600160a01b039081168552600182015490811693850193909352600160a01b90920460ff16908301526002015460608201529150610dc86106e8565b90506000878c83600081518110610de157610de161572b565b6020026020010151610df391906157c4565b610dfd919061578b565b9050610e4e6040518060c00160405280600280811115610e1f57610e1f615831565b8152602001610e2e8d8f615847565b81526020018481526020018981526020018e81526020018a8152506133db565b81600081518110610e6157610e6161572b565b602002602001015183600001516001600160a01b03166370a08231306040518263ffffffff1660e01b8152600401610e999190615504565b60206040518083038186803b158015610eb157600080fd5b505afa158015610ec5573d6000803e3d6000fd5b505050506040513d601f19601f82011682018060405250810190610ee99190615741565b610ef391906157ad565b610efd9082615800565b6101085490915061271090610f1290836157c4565b610f1c919061578b565b610f2690826157ad565b905060008360600151610f3c8560200151610668565b610f4690846157c4565b610f50919061578b565b905085811115610f7d576040516354ba98a560e11b815260048101829052602481018790526044016105e8565b84811015610fa857604051635faadc9360e11b815260048101829052602481018690526044016105e8565b8351610fbe906001600160a01b031633846135f3565b60408051838152602081018f90527fe3829d5463fae0f748d927f86f762044188c9ce53d91a394eb93e98354cc3092910160405180910390a15050505050505050505061095f600160c955565b6001600160a01b038116331461107b5760405162461bcd60e51b815260206004820152602f60248201527f416363657373436f6e74726f6c3a2063616e206f6e6c792072656e6f756e636560448201526e103937b632b9903337b91039b2b63360891b60648201526084016105e8565b6110858282613612565b5050565b604080516080810182526000808252602082015260609181018290528181019190915260408051608081018252610104805460ff80821615158452610100909104166020830152610105805492939192918401916110e6906158c2565b80601f0160208091040260200160405190810160405280929190818152602001828054611112906158c2565b801561115f5780601f106111345761010080835404028352916020019161115f565b820191906000526020600020905b81548152906001019060200180831161114257829003601f168201915b50505050508152602001600282018054611178906158c2565b80601f01602080910402602001604051908101604052809291908181526020018280546111a4906158c2565b80156111f15780601f106111c6576101008083540402835291602001916111f1565b820191906000526020600020905b8154815290600101906020018083116111d457829003601f168201915b505050505081525050905090565b600061120a81613204565b8151610104805460208086015161ffff1990921693151561ff0019169390931761010060ff909216919091021781556040840151805185936112529261010592910190614d4d565b506060820151805161126e916002840191602090910190614d4d565b509050507ff6940ae7e97ace6f5304173ed0c95b483acef9793cfc632f8b259d5cca9dc0b48260405161065c91906151ee565b60fb81815481106112b157600080fd5b60009182526020909120600390910201805460018201546002909201546001600160a01b03918216935090821691600160a01b900460ff169084565b60006112f881613204565b61095f83836001613634565b6113446040518060e00160405280600081526020016000815260200160008152602001600081526020016000815260200160008152602001600081525090565b506040805160e08101825261010d54815261010e54602082015261010f54918101919091526101105460608201526101115460808201526101125460a08201526101135460c082015290565b6101045460ff16156113b5576040516313d0ff5960e31b815260040160405180910390fd5b600080516020615ca28339815191526113cd81613204565b6113d5613230565b6000806113e260006139aa565b50426101035560408051838152602081018390529294509092507fc12a397776c552467e177929f628ce1c846fcf8cc838988cd64dc7c8a2b50f59910160405180910390a15050610b45600160c955565b61143b613230565b6101045460ff1615611460576040516313d0ff5960e31b815260040160405180910390fd5b600061146b81613204565b60ff54604051635948ab6360e01b815283151560048201526001600160a01b0390911690635948ab6390602401600060405180830381600087803b1580156114b257600080fd5b505af11580156114c6573d6000803e3d6000fd5b505050507f49e9260ea69698d22e567600532cbaccdc6a94f1d9f3cc307535c6a32be94f24826040516114fd911515815260200190565b60405180910390a150610b45600160c955565b61153b6040518060800160405280600081526020016060815260200160008152602001600081525090565b61010060405180608001604052908160008201548152602001600182018054806020026020016040519081016040528092919081815260200182805480156115a257602002820191906000526020600020905b81548152602001906001019080831161158e575b5050505050815260200160028201548152602001600382015481525050905090565b6116066040518060c0016040528060006001600160a01b0316815260200160008152602001600081526020016000815260200160008152602001600081525090565b506040805160c081018252610107546001600160a01b03168152610108546020820152610109549181019190915261010a54606082015261010b54608082015261010c5460a082015290565b600082815260976020526040812061166a9083613bc3565b9392505050565b60009182526065602090815260408084206001600160a01b0393909316845291905290205460ff1690565b6060600080600060fb805480602002602001604051908101604052809291908181526020016000905b8282101561172d576000848152602090819020604080516080810182526003860290920180546001600160a01b03908116845260018083015491821685870152600160a01b90910460ff169284019290925260020154606083015290835290920191016116c5565b50508251929350829150506001600160401b0381111561174f5761174f614e84565b604051908082528060200260200182016040528015611778578160200160208202803683370190505b50945060005b8181101561189957600083828151811061179a5761179a61572b565b60200260200101519050600081600001516001600160a01b03166370a08231306040518263ffffffff1660e01b81526004016117d69190615504565b60206040518083038186803b1580156117ee57600080fd5b505afa158015611802573d6000803e3d6000fd5b505050506040513d601f19601f820116820180604052508101906118269190615741565b9050801561188457600082606001516118428460200151610668565b61184c90846157c4565b611856919061578b565b90508089858151811061186b5761186b61572b565b60209081029190910101526118808189615800565b9750505b5050808061189190615770565b91505061177e565b5060005b8181101561196e57846118ed576101018054829081106118bf576118bf61572b565b90600052602060002001548682815181106118dc576118dc61572b565b60200260200101818152505061195c565b6305f5e100612710866305f5e10089858151811061190d5761190d61572b565b602002602001015161191f91906157c4565b611929919061578b565b61193391906157c4565b61193d919061578b565b86828151811061194f5761194f61572b565b6020026020010181815250505b8061196681615770565b91505061189d565b5060ff54604080516318160ddd60e01b815290516000926001600160a01b0316916318160ddd916004808301926020929190829003018186803b1580156119b457600080fd5b505afa1580156119c8573d6000803e3d6000fd5b505050506040513d601f19601f820116820180604052508101906119ec9190615741565b90508015611a125780611a036305f5e100876157c4565b611a0d919061578b565b611a15565b60005b9350505050909192565b60008060006170806101006003015442611a3991906157ad565b611a43919061578b565b9050611a4d61169c565b9350505080611a5f5760009250509091565b60ff54604080516318160ddd60e01b815290516000926001600160a01b0316916318160ddd916004808301926020929190829003018186803b158015611aa457600080fd5b505afa158015611ab8573d6000803e3d6000fd5b505050506040513d601f19601f82011682018060405250810190611adc9190615741565b61010954909150620f424090611af283856157c4565b611afc91906157c4565b611b06919061578b565b935050509091565b6101045460ff1615611b33576040516313d0ff5960e31b815260040160405180910390fd5b611b3b613230565b600080516020615cc2833981519152611b5381613204565b6101115461010254600091611b6791615800565b9050428110611b8c576040516353d5558560e01b8152600481018290526024016105e8565b6000611b966106e8565b90506000805b8751811015611bde57878181518110611bb757611bb761572b565b602002602001015182611bca9190615800565b915080611bd681615770565b915050611b9c565b506127108114611c04576040516335ece97360e01b8152600481018290526024016105e8565b6000611c0e61169c565b50509050611c646040518060c0016040528060016002811115611c3357611c33615831565b8152602001611c42898b615847565b81526020018581526020018581526020016000815260200160008152506133db565b60005b8851811015611cbf57888181518110611c8257611c8261572b565b60200260200101516101006001018281548110611ca157611ca161572b565b60009182526020909120015580611cb781615770565b915050611c67565b5042610102556040517f2e3e78ec7fafe8556e86e3facbfa811ce2ad2b4a23950229fb433e1eef381c9290611cf79083908b906158fd565b60405180910390a1505050505061095f600160c955565b60008181526097602052604081206105a890613bcf565b600054610100900460ff1615808015611d455750600054600160ff909116105b80611d5f5750303b158015611d5f575060005460ff166001145b611dc25760405162461bcd60e51b815260206004820152602e60248201527f496e697469616c697a61626c653a20636f6e747261637420697320616c72656160448201526d191e481a5b9a5d1a585b1a5e995960921b60648201526084016105e8565b6000805460ff191660011790558015611de5576000805461ff0019166101001790555b611ded613bd9565b611df5613c0a565b60fd80546001600160a01b03191633908117909155611e1690600090613c31565b611e3d600080516020615cc2833981519152611e3860a0870160808801614f8a565b613c31565b611e5f600080516020615ca2833981519152611e3860a0870160808801614f8a565b611efa600080516020615ca283398151915260fd60000160009054906101000a90046001600160a01b03166001600160a01b0316634bdaeac16040518163ffffffff1660e01b815260040160206040518083038186803b158015611ec257600080fd5b505afa158015611ed6573d6000803e3d6000fd5b505050506040513d601f19601f82011682018060405250810190611e3891906157e3565b60fd546040805163bfb8280960e01b815290516000926001600160a01b03169163bfb82809916004808301926020929190829003018186803b158015611f3f57600080fd5b505afa158015611f53573d6000803e3d6000fd5b505050506040513d601f19601f82011682018060405250810190611f7791906157e3565b90506000611f8482613c3b565b90506001600160a01b038116631624f6c6611fa26040890189615922565b611faf60608b018b615922565b60086040518663ffffffff1660e01b8152600401611fd1959493929190615991565b600060405180830381600087803b158015611feb57600080fd5b505af1158015611fff573d6000803e3d6000fd5b505060fd54604080516306ec4be960e41b81529051600094506001600160a01b039092169250636ec4be90916004808301926020929190829003018186803b15801561204a57600080fd5b505afa15801561205e573d6000803e3d6000fd5b505050506040513d601f19601f8201168201806040525081019061208291906157e3565b905060005b88811015612449576040805160808101825260008082526020820181905291810182905260608101829052903363d10cf5698d8d868181106120cb576120cb61572b565b90506020020160208101906120e09190614f8a565b6040518263ffffffff1660e01b81526004016120fc9190615504565b60206040518083038186803b15801561211457600080fd5b505afa158015612128573d6000803e3d6000fd5b505050506040513d601f19601f8201168201806040525081019061214c91906157e3565b90506001600160a01b038116612175576040516304fffbb760e41b815260040160405180910390fd5b6000816001600160a01b031663313ce5676040518163ffffffff1660e01b815260040160206040518083038186803b1580156121b057600080fd5b505afa1580156121c4573d6000803e3d6000fd5b505050506040513d601f19601f820116820180604052508101906121e891906159ce565b90508060ff1660081461220e57604051632bdd753960e01b815260040160405180910390fd5b8c8c858181106122205761222061572b565b90506020020160208101906122359190614f8a565b6001600160a01b031663313ce5676040518163ffffffff1660e01b815260040160206040518083038186803b15801561226d57600080fd5b505afa158015612281573d6000803e3d6000fd5b505050506040513d601f19601f820116820180604052508101906122a591906159ce565b6122b090600a615acf565b60608401528c8c858181106122c7576122c761572b565b90506020020160208101906122dc9190614f8a565b6001600160a01b0390811684528216602084015261232e856000198f8f888181106123095761230961572b565b905060200201602081019061231e9190614f8a565b6001600160a01b0316919061328a565b60ff8082166040850190815260fb8054600181018255600091909152855160039091027f3e7257b7272bb46d49cd6019b04ddee20da7c0cb13f7c1ec3391291b2ccebabc810180546001600160a01b039384166001600160a01b031990911617905560208701517f3e7257b7272bb46d49cd6019b04ddee20da7c0cb13f7c1ec3391291b2ccebabd820180549451909516600160a01b026001600160a81b03199094169216919091179190911790915560608401517f3e7257b7272bb46d49cd6019b04ddee20da7c0cb13f7c1ec3391291b2ccebabe90910155610101841561241857600061241c565b6127105b8154600181018355600092835260209092209091015550829150612441905081615770565b915050612087565b5060ff80546001600160a01b0319166001600160a01b0384161790554260fe8190556305f5e10061010055610102819055610103556124888780615922565b6124959161010591614dd1565b506124a36020880188615922565b6124b09161010691614dd1565b506124c361053d3688900388018861563f565b6124d561023236879003870187614ef2565b505050801561251e576000805461ff0019169055604051600181527f7f26b83ff96e1f2b6a682f133852f6798a09c465da95921460cefb38474024989060200160405180910390a15b505050505050565b60008281526065602052604090206001015461254181613204565b61095f8383613612565b600061255681613204565b60198260200151108061256e57506101f48260200151115b1561259457816020015160405163031dc50960e61b81526004016105e891815260200190565b611388826080015111156125c357816080015160405163031dc50960e61b81526004016105e891815260200190565b611d4c826060015111156125f257816060015160405163031dc50960e61b81526004016105e891815260200190565b611d4c8260a001511115612621578160a0015160405163031dc50960e61b81526004016105e891815260200190565b60648260400151111561264f57816040015160405163031dc50960e61b81526004016105e891815260200190565b6040820151610109541080156126655742610103555b825161010780546001600160a01b0319166001600160a01b0390921691909117905560208301516101085560408084015161010955606084015161010a55608084015161010b5560a084015161010c55517f52e095e419f47e99f0d9b34a2417a1eb7e1fc6d0c34a910404a2bf16c452ee43906126e390859061549a565b60405180910390a1505050565b6126f8613230565b61270433826000613634565b610b45600160c955565b6101045460ff1615612733576040516313d0ff5960e31b815260040160405180910390fd5b61273b613230565b600080516020615cc283398151915261275381613204565b600061275e83613cd8565b509050801561278057604051634347faeb60e11b815260040160405180910390fd5b60408051608081018252600080825260208201819052918101829052606081019190915260fd5460405163d10cf56960e01b81526000916001600160a01b03169063d10cf569906127d5908890600401615504565b60206040518083038186803b1580156127ed57600080fd5b505afa158015612801573d6000803e3d6000fd5b505050506040513d601f19601f8201168201806040525081019061282591906157e3565b90506001600160a01b03811661284e576040516304fffbb760e41b815260040160405180910390fd5b6000816001600160a01b031663313ce5676040518163ffffffff1660e01b815260040160206040518083038186803b15801561288957600080fd5b505afa15801561289d573d6000803e3d6000fd5b505050506040513d601f19601f820116820180604052508101906128c191906159ce565b90508060ff166008146128e757604051632bdd753960e01b815260040160405180910390fd5b856001600160a01b031663313ce5676040518163ffffffff1660e01b815260040160206040518083038186803b15801561292057600080fd5b505afa158015612934573d6000803e3d6000fd5b505050506040513d601f19601f8201168201806040525081019061295891906159ce565b61296390600a615acf565b60608401526001600160a01b03808716845282811660208086019190915260fd54604080516306ec4be960e41b81529051612a08949290921692636ec4be9092600480840193829003018186803b1580156129bd57600080fd5b505afa1580156129d1573d6000803e3d6000fd5b505050506040513d601f19601f820116820180604052508101906129f591906157e3565b6001600160a01b0388169060001961328a565b60ff808216604080860191825260fb8054600181810183556000928352885160039092027f3e7257b7272bb46d49cd6019b04ddee20da7c0cb13f7c1ec3391291b2ccebabc810180546001600160a01b039485166001600160a01b031990911617905560208a01517f3e7257b7272bb46d49cd6019b04ddee20da7c0cb13f7c1ec3391291b2ccebabd820180549751909816600160a01b026001600160a81b03199097169316929092179490941790945560608701517f3e7257b7272bb46d49cd6019b04ddee20da7c0cb13f7c1ec3391291b2ccebabe909401939093556101018054928301815583527f109ea3cebb188b9c1b9fc5bb3920be60dfdc8699098dff92f3d80daaca747689909101919091554261010255517fb38e19e04618f9502008311560587c597fe11e8867226353a0c01aab7e4df29390612b4d908890615504565b60405180910390a15050505050610b45600160c955565b6101045460ff1615612b89576040516313d0ff5960e31b815260040160405180910390fd5b600080516020615ca2833981519152612ba181613204565b612ba9613230565b6000806000612bb860016139aa565b610100819055604080518481526020810184905293965091945092507f4df77e1c8936ecbc57484b48d11e70fbbb469a333378c71e81a29f2b486fa6ce910160405180910390a1505050610b45600160c955565b6101045460ff1615612c31576040516313d0ff5960e31b815260040160405180910390fd5b612c39613230565b600080612c4461169c565b5091509150600060fb600081548110612c5f57612c5f61572b565b6000918252602080832060408051608081018252600390940290910180546001600160a01b03908116855260018201548082168686015260ff600160a01b9091048116868501526002909201546060860152905482516318160ddd60e01b8152925194965016926318160ddd92600480840193919291829003018186803b158015612ce957600080fd5b505afa158015612cfd573d6000803e3d6000fd5b505050506040513d601f19601f82011682018060405250810190612d219190615741565b9050600081612d31576000612dc5565b60ff546040516370a0823160e01b815283916001600160a01b0316906370a0823190612d61903390600401615504565b60206040518083038186803b158015612d7957600080fd5b505afa158015612d8d573d6000803e3d6000fd5b505050506040513d601f19601f82011682018060405250810190612db19190615741565b612dbb90866157c4565b612dc5919061578b565b6101125433600090815260fc602052604081205492935091612de79190615800565b90506000612710612df9816032615800565b8660600151612e0b8860200151610668565b612e15908e6157c4565b612e1f919061578b565b612e2991906157c4565b612e33919061578b565b61010f54909150811015612e5d57604051630266752760e51b8152600481018290526024016105e8565b61011054612e6b8285615800565b1115612e9757612e7b8184615800565b6040516395faf97b60e01b81526004016105e891815260200190565b428210612eba576040516353d5558560e01b8152600481018390526024016105e8565b61010d54612ec88288615800565b10612ef357612ed78187615800565b604051639f877d8760e01b81526004016105e891815260200190565b60fd5460408051631fb96c0d60e31b815290516001600160a01b039092169163fdcb606891600480820192602092909190829003018186803b158015612f3857600080fd5b505afa158015612f4c573d6000803e3d6000fd5b505050506040513d601f19601f82011682018060405250810190612f7091906157e3565b60405163a10cda9960e01b81523060048201523360248201526001600160a01b03919091169063a10cda999060440160206040518083038186803b158015612fb757600080fd5b505afa158015612fcb573d6000803e3d6000fd5b505050506040513d601f19601f82011682018060405250810190612fef9190615ade565b61300e573360405163472511eb60e11b81526004016105e89190615504565b60006130186106e8565b8651909150613032906001600160a01b031633308e613d4e565b6040805160c081019091526130739080600081526020016130538c8e615847565b81526020018381526020018a81526020018d8152602001878152506133db565b600061307d61169c565b5091506000905061308e89836157ad565b9050838111156130bb57604051636963bca560e01b815260048101859052602481018290526044016105e8565b6000876130c95750806130e1565b896130d489846157c4565b6130de919061578b565b90505b600081116131025760405163220328c760e11b815260040160405180910390fd5b33600081815260fc60205260409081902042905560ff5490516340c10f1960e01b81526001600160a01b03909116916340c10f199161314691908590600401615818565b600060405180830381600087803b15801561316057600080fd5b505af1158015613174573d6000803e3d6000fd5b505050507fa3af609bf46297028ce551832669030f9effef2b02606d02cbbcc40fe6b47c558e826040516131b2929190918252602082015260400190565b60405180910390a1505050505050505050505061095f600160c955565b60006001600160e01b03198216637965db0b60e01b14806105a857506301ffc9a760e01b6001600160e01b03198316146105a8565b610b458133613d86565b6132188282613ddf565b600082815260976020526040902061095f9082613e65565b600260c95414156132835760405162461bcd60e51b815260206004820152601f60248201527f5265656e7472616e637947756172643a207265656e7472616e742063616c6c0060448201526064016105e8565b600260c955565b8015806133135750604051636eb1769f60e11b81523060048201526001600160a01b03838116602483015284169063dd62ed3e9060440160206040518083038186803b1580156132d957600080fd5b505afa1580156132ed573d6000803e3d6000fd5b505050506040513d601f19601f820116820180604052508101906133119190615741565b155b61337e5760405162461bcd60e51b815260206004820152603660248201527f5361666545524332303a20617070726f76652066726f6d206e6f6e2d7a65726f60448201527520746f206e6f6e2d7a65726f20616c6c6f77616e636560501b60648201526084016105e8565b61095f8363095ea7b360e01b848460405160240161339d929190615818565b60408051601f198184030181529190526020810180516001600160e01b03166001600160e01b031990931692909217909152613e7a565b600160c955565b60208101515160fb546000906001600160401b038111156133fe576133fe614e84565b604051908082528060200260200182016040528015613427578160200160208202803683370190505b5060fb549091506000906001600160401b0381111561344857613448614e84565b604051908082528060200260200182016040528015613471578160200160208202803683370190505b50905060005b838110156135da5760008060006134be8860200151858151811061349d5761349d61572b565b602002602001015189600001518a608001518b606001518c60a00151613f4c565b919450925090506000885160028111156134da576134da615831565b1480156134ec57506134ec85836142b2565b1561350a57604051634b60dbfb60e01b815260040160405180910390fd5b60028851600281111561351f5761351f615831565b148015613531575061353186846142b2565b1561354f57604051634b60dbfb60e01b815260040160405180910390fd5b60018583815181106135635761356361572b565b60200260200101901515908115158152505060018684815181106135895761358961572b565b6020026020010190151590811515815250506135c4886020015185815181106135b4576135b461572b565b60200260200101518484846142d6565b50505080806135d290615770565b915050613477565b506135ed8460400151856000015161466e565b50505050565b61095f8363a9059cbb60e01b848460405160240161339d929190615818565b61361c8282614804565b600082815260976020526040902061095f908261486b565b81613655576040516324171d7360e01b8152600481018390526024016105e8565b610112546001600160a01b038416600090815260fc6020526040812054909161367d91615800565b90504281106136a2576040516353d5558560e01b8152600481018290526024016105e8565b60006136ac61169c565b5060ff54604080516318160ddd60e01b815290519294506001600160a01b03909116925060009183916318160ddd916004808301926020929190829003018186803b1580156136fa57600080fd5b505afa15801561370e573d6000803e3d6000fd5b505050506040513d601f19601f820116820180604052508101906137329190615741565b905060008161374188866157c4565b61374b919061578b565b905085156137b85760405163fb1b61b360e01b81526001600160a01b0384169063fb1b61b390613781908b908b90600401615818565b600060405180830381600087803b15801561379b57600080fd5b505af11580156137af573d6000803e3d6000fd5b50505050613819565b60405163079cc67960e41b81526001600160a01b038416906379cc6790906137e6908b908b90600401615818565b600060405180830381600087803b15801561380057600080fd5b505af1158015613814573d6000803e3d6000fd5b505050505b61010854600061382860fb5490565b905060005b8181101561396457600060fb828154811061384a5761384a61572b565b60009182526020909120600390910201546040516370a0823160e01b81526001600160a01b03909116906370a0823190613888903090600401615504565b60206040518083038186803b1580156138a057600080fd5b505afa1580156138b4573d6000803e3d6000fd5b505050506040513d601f19601f820116820180604052508101906138d89190615741565b90506000866138e78d846157c4565b6138f1919061578b565b905061271061390086836157c4565b61390a919061578b565b61391490826157ad565b905061394f8d8260fb868154811061392e5761392e61572b565b60009182526020909120600390910201546001600160a01b031691906135f3565b5050808061395c90615770565b91505061382d565b5060408051848152602081018b90527fe3829d5463fae0f748d927f86f762044188c9ce53d91a394eb93e98354cc3092910160405180910390a150505050505050505050565b6000806000806000856001146139c7576139c2611a1f565b6139cf565b6139cf610821565b909250905060006305f5e1006139e583856157c4565b6139ef919061578b565b61011354909150811015613a195760405163835e91b160e01b8152600481018290526024016105e8565b600087600114613a2c5761010a54613a31565b61010c545b9050612710613a4082866157c4565b613a4a919061578b565b9550613a5686856157ad565b60fd54604051630e9f05fb60e21b8152600481018b90529198506000916001600160a01b0390911690633a7c17ec9060240160206040518083038186803b158015613aa057600080fd5b505afa158015613ab4573d6000803e3d6000fd5b505050506040513d601f19601f82011682018060405250810190613ad891906157e3565b90508715613b455760ff546040516340c10f1960e01b81526001600160a01b03909116906340c10f1990613b129084908c90600401615818565b600060405180830381600087803b158015613b2c57600080fd5b505af1158015613b40573d6000803e3d6000fd5b505050505b8615613bb55760ff54610107546040516340c10f1960e01b81526001600160a01b03928316926340c10f1992613b82929116908b90600401615818565b600060405180830381600087803b158015613b9c57600080fd5b505af1158015613bb0573d6000803e3d6000fd5b505050505b509193505050509193909250565b600061166a8383614880565b60006105a8825490565b600054610100900460ff16613c005760405162461bcd60e51b81526004016105e890615afb565b613c086148aa565b565b600054610100900460ff16613c085760405162461bcd60e51b81526004016105e890615afb565b611085828261320e565b6000604051733d602d80600a3d3981f3363d3d373d3d3d363d7360601b81528260601b60148201526e5af43d82803e903d91602b57fd5bf360881b60288201526037816000f09150506001600160a01b038116613cd35760405162461bcd60e51b8152602060048201526016602482015275115490cc4c4d8dce8818dc99585d194819985a5b195960521b60448201526064016105e8565b919050565b60008060005b60fb54811015613d4257836001600160a01b031660fb8281548110613d0557613d0561572b565b60009182526020909120600390910201546001600160a01b03161415613d3057600194909350915050565b80613d3a81615770565b915050613cde565b50600093849350915050565b6040516001600160a01b03808516602483015283166044820152606481018290526135ed9085906323b872dd60e01b9060840161339d565b613d908282611671565b61108557613d9d816148d1565b613da88360206148e3565b604051602001613db9929190615b46565b60408051601f198184030181529082905262461bcd60e51b82526105e891600401615bb5565b613de98282611671565b6110855760008281526065602090815260408083206001600160a01b03851684529091529020805460ff19166001179055613e213390565b6001600160a01b0316816001600160a01b0316837f2f8788117e7eff1d82e926ec794901d17c78024a50270940304540a733656f0d60405160405180910390a45050565b600061166a836001600160a01b038416614a7e565b6000613ecf826040518060400160405280602081526020017f5361666545524332303a206c6f772d6c6576656c2063616c6c206661696c6564815250856001600160a01b0316614acd9092919063ffffffff16565b80519091501561095f5780806020019051810190613eed9190615ade565b61095f5760405162461bcd60e51b815260206004820152602a60248201527f5361666545524332303a204552433230206f7065726174696f6e20646964206e6044820152691bdd081cdd58d8d9595960b21b60648201526084016105e8565b60fd54604080516377bb1eb960e01b815290516000928392839283926001600160a01b0316916377bb1eb9916004808301926020929190829003018186803b158015613f9757600080fd5b505afa158015613fab573d6000803e3d6000fd5b505050506040513d601f19601f82011682018060405250810190613fcf91906157e3565b90506000806000836001600160a01b031663ef4592fb8d6040518263ffffffff1660e01b81526004016140029190615bb5565b60606040518083038186803b15801561401a57600080fd5b505afa15801561402e573d6000803e3d6000fd5b505050506040513d601f19601f820116820180604052508101906140529190615bc8565b925092509250600061406384613cd8565b985090508061408757836040516340d1d8df60e11b81526004016105e89190615504565b61409083613cd8565b97509050806140b457826040516340d1d8df60e11b81526004016105e89190615504565b600060fb6000815481106140ca576140ca61572b565b600091825260208220600390910201546001600160a01b031691508d60028111156140f7576140f7615831565b141561419357806001600160a01b0316856001600160a01b03161461412f57604051630cd9d93d60e21b815260040160405180910390fd5b60006127108c8a815181106141465761414661572b565b6020026020010151603261415a9190615800565b614164908f6157c4565b61416e919061578b565b90508084111561419157604051630cd9d93d60e21b815260040160405180910390fd5b505b60028d60028111156141a7576141a7615831565b141561429f57806001600160a01b0316846001600160a01b0316146141df57604051635726a94360e01b815260040160405180910390fd5b6040516370a0823160e01b81526000906001600160a01b038716906370a082319061420e903090600401615504565b60206040518083038186803b15801561422657600080fd5b505afa15801561423a573d6000803e3d6000fd5b505050506040513d601f19601f8201168201806040525081019061425e9190615741565b905060008b828f61426f91906157c4565b614279919061578b565b90508085111561429c57604051632b9fe05960e21b815260040160405180910390fd5b50505b5090945050505050955095509592505050565b60008282815181106142c6576142c661572b565b6020026020010151905092915050565b60fd546040805163c31c9c0760e01b815290516000926001600160a01b03169163c31c9c07916004808301926020929190829003018186803b15801561431b57600080fd5b505afa15801561432f573d6000803e3d6000fd5b505050506040513d601f19601f8201168201806040525081019061435391906157e3565b9050600060fb858154811061436a5761436a61572b565b600091825260208083206040805160808101825260039490940290910180546001600160a01b039081168552600182015490811693850193909352600160a01b90920460ff169083015260020154606082015260fb805491935090869081106143d5576143d561572b565b6000918252602080832060408051608081018252600390940290910180546001600160a01b0390811680865260018301549182169486019490945260ff600160a01b9091041684830152600201546060840152516370a0823160e01b8152919350906370a082319061444b903090600401615504565b60206040518083038186803b15801561446357600080fd5b505afa158015614477573d6000803e3d6000fd5b505050506040513d601f19601f8201168201806040525081019061449b9190615741565b9050600080856001600160a01b03168a6040516144b89190615c0b565b6000604051808303816000865af19150503d80600081146144f5576040519150601f19603f3d011682016040523d82523d6000602084013e6144fa565b606091505b509150915081614521578981604051635ba5f0c760e11b81526004016105e8929190615c27565b60008385600001516001600160a01b03166370a08231306040518263ffffffff1660e01b81526004016145549190615504565b60206040518083038186803b15801561456c57600080fd5b505afa158015614580573d6000803e3d6000fd5b505050506040513d601f19601f820116820180604052508101906145a49190615741565b6145ae91906157ad565b9050600086606001516145c48860200151610668565b6145ce908b6157c4565b6145d8919061578b565b9050600086606001516145ee8860200151610668565b6145f890856157c4565b614602919061578b565b9050600061271061010d6001015461271061461d91906157ad565b61462790856157c4565b614631919061578b565b90508082101561465e57604051636963bca560e01b815260048101849052602481018390526044016105e8565b5050505050505050505050505050565b600061467960fb5490565b905060006146856106e8565b9050600083600281111561469b5761469b615831565b14156147195760005b82811015614713578481815181106146be576146be61572b565b60200260200101518282815181106146d8576146d861572b565b6020026020010151101561470157836040516370acc9c360e01b81526004016105e89190615c4c565b8061470b81615770565b9150506146a4565b506135ed565b600183600281111561472d5761472d615831565b1415614738576135ed565b600283600281111561474c5761474c615831565b14156147c45760015b828110156147135784818151811061476f5761476f61572b565b60200260200101518282815181106147895761478961572b565b602002602001015111156147b257836040516370acc9c360e01b81526004016105e89190615c4c565b806147bc81615770565b915050614755565b60405162461bcd60e51b8152602060048201526015602482015274556e657870656374656420416374696f6e5479706560581b60448201526064016105e8565b61480e8282611671565b156110855760008281526065602090815260408083206001600160a01b0385168085529252808320805460ff1916905551339285917ff6391f5c32d9c69d2a47ea670b442974b53935d1edc7fd64eb21e047a839171b9190a45050565b600061166a836001600160a01b038416614ae4565b60008260000182815481106148975761489761572b565b9060005260206000200154905092915050565b600054610100900460ff166133d45760405162461bcd60e51b81526004016105e890615afb565b60606105a86001600160a01b03831660145b606060006148f28360026157c4565b6148fd906002615800565b6001600160401b0381111561491457614914614e84565b6040519080825280601f01601f19166020018201604052801561493e576020820181803683370190505b509050600360fc1b816000815181106149595761495961572b565b60200101906001600160f81b031916908160001a905350600f60fb1b816001815181106149885761498861572b565b60200101906001600160f81b031916908160001a90535060006149ac8460026157c4565b6149b7906001615800565b90505b6001811115614a2f576f181899199a1a9b1b9c1cb0b131b232b360811b85600f16601081106149eb576149eb61572b565b1a60f81b828281518110614a0157614a0161572b565b60200101906001600160f81b031916908160001a90535060049490941c93614a2881615c74565b90506149ba565b50831561166a5760405162461bcd60e51b815260206004820181905260248201527f537472696e67733a20686578206c656e67746820696e73756666696369656e7460448201526064016105e8565b6000818152600183016020526040812054614ac5575081546001818101845560008481526020808220909301849055845484825282860190935260409020919091556105a8565b5060006105a8565b6060614adc8484600085614bd7565b949350505050565b60008181526001830160205260408120548015614bcd576000614b086001836157ad565b8554909150600090614b1c906001906157ad565b9050818114614b81576000866000018281548110614b3c57614b3c61572b565b9060005260206000200154905080876000018481548110614b5f57614b5f61572b565b6000918252602080832090910192909255918252600188019052604090208390555b8554869080614b9257614b92615c8b565b6001900381819060005260206000200160009055905585600101600086815260200190815260200160002060009055600193505050506105a8565b60009150506105a8565b606082471015614c385760405162461bcd60e51b815260206004820152602660248201527f416464726573733a20696e73756666696369656e742062616c616e636520666f6044820152651c8818d85b1b60d21b60648201526084016105e8565b600080866001600160a01b03168587604051614c549190615c0b565b60006040518083038185875af1925050503d8060008114614c91576040519150601f19603f3d011682016040523d82523d6000602084013e614c96565b606091505b5091509150614ca787838387614cb2565b979650505050505050565b60608315614d1e578251614d17576001600160a01b0385163b614d175760405162461bcd60e51b815260206004820152601d60248201527f416464726573733a2063616c6c20746f206e6f6e2d636f6e747261637400000060448201526064016105e8565b5081614adc565b614adc8383815115614d335781518083602001fd5b8060405162461bcd60e51b81526004016105e89190615bb5565b828054614d59906158c2565b90600052602060002090601f016020900481019282614d7b5760008555614dc1565b82601f10614d9457805160ff1916838001178555614dc1565b82800160010185558215614dc1579182015b82811115614dc1578251825591602001919060010190614da6565b50614dcd929150614e45565b5090565b828054614ddd906158c2565b90600052602060002090601f016020900481019282614dff5760008555614dc1565b82601f10614e185782800160ff19823516178555614dc1565b82800160010185558215614dc1579182015b82811115614dc1578235825591602001919060010190614e2a565b5b80821115614dcd5760008155600101614e46565b600060208284031215614e6c57600080fd5b81356001600160e01b03198116811461166a57600080fd5b634e487b7160e01b600052604160045260246000fd5b604051608081016001600160401b0381118282101715614ebc57614ebc614e84565b60405290565b604051601f8201601f191681016001600160401b0381118282101715614eea57614eea614e84565b604052919050565b600060e08284031215614f0457600080fd5b60405160e081018181106001600160401b0382111715614f2657614f26614e84565b8060405250823581526020830135602082015260408301356040820152606083013560608201526080830135608082015260a083013560a082015260c083013560c08201528091505092915050565b6001600160a01b0381168114610b4557600080fd5b600060208284031215614f9c57600080fd5b813561166a81614f75565b600081518084526020808501945080840160005b83811015614fd757815187529582019590820190600101614fbb565b509495945050505050565b60208152600061166a6020830184614fa7565b60006020828403121561500757600080fd5b5035919050565b6000806040838503121561502157600080fd5b82359150602083013561503381614f75565b809150509250929050565b60006001600160401b0382111561505757615057614e84565b5060051b60200190565b600082601f83011261507257600080fd5b813560206150876150828361503e565b614ec2565b82815260059290921b840181019181810190868411156150a657600080fd5b8286015b848110156150c157803583529183019183016150aa565b509695505050505050565b6000602082840312156150de57600080fd5b81356001600160401b038111156150f457600080fd5b614adc84828501615061565b60008083601f84011261511257600080fd5b5081356001600160401b0381111561512957600080fd5b6020830191508360208260051b850101111561514457600080fd5b9250929050565b60008060006040848603121561516057600080fd5b8335925060208401356001600160401b0381111561517d57600080fd5b61518986828701615100565b9497909650939450505050565b60005b838110156151b1578181015183820152602001615199565b838111156135ed5750506000910152565b600081518084526151da816020860160208601615196565b601f01601f19169290920160200192915050565b6020815281511515602082015260ff6020830151166040820152600060408301516080606084015261522360a08401826151c2565b90506060840151601f1984830301608085015261524082826151c2565b95945050505050565b8015158114610b4557600080fd5b60ff81168114610b4557600080fd5b60006001600160401b0383111561527f5761527f614e84565b615292601f8401601f1916602001614ec2565b90508281528383830111156152a657600080fd5b828260208301376000602084830101529392505050565b600082601f8301126152ce57600080fd5b61166a83833560208501615266565b6000602082840312156152ef57600080fd5b81356001600160401b038082111561530657600080fd5b908301906080828603121561531a57600080fd5b615322614e9a565b823561532d81615249565b8152602083013561533d81615257565b602082015260408301358281111561535457600080fd5b615360878286016152bd565b60408301525060608301358281111561537857600080fd5b615384878286016152bd565b60608301525095945050505050565b600080604083850312156153a657600080fd5b82356153b181614f75565b946020939093013593505050565b600060e082019050825182526020830151602083015260408301516040830152606083015160608301526080830151608083015260a083015160a083015260c083015160c083015292915050565b60006020828403121561541f57600080fd5b813561166a81615249565b60208082528251828201528281015160806040840152805160a0840181905260009291820190839060c08601905b808310156154785783518252928401926001929092019190840190615458565b5060408701516060870152606087015160808701528094505050505092915050565b81516001600160a01b031681526020808301519082015260408083015190820152606080830151908201526080808301519082015260a0918201519181019190915260c00190565b600080604083850312156154f557600080fd5b50508035926020909101359150565b6001600160a01b0391909116815260200190565b60608152600061552b6060830186614fa7565b60208301949094525060400152919050565b60008060006040848603121561555257600080fd5b83356001600160401b038082111561556957600080fd5b61557587838801615061565b9450602086013591508082111561558b57600080fd5b5061518986828701615100565b60008060008060008587036101e08112156155b257600080fd5b86356001600160401b03808211156155c957600080fd5b6155d58a838b01615100565b909850965060208901359150808211156155ee57600080fd5b50870160a0818a03121561560157600080fd5b935060c0603f198201121561561557600080fd5b60408701925060e060ff198201121561562d57600080fd5b50610100860190509295509295909350565b600060c0828403121561565157600080fd5b60405160c081018181106001600160401b038211171561567357615673614e84565b604052823561568181614f75565b808252506020830135602082015260408301356040820152606083013560608201526080830135608082015260a083013560a08201528091505092915050565b805169ffffffffffffffffffff81168114613cd357600080fd5b600080600080600060a086880312156156f357600080fd5b6156fc866156c1565b945060208601519350604086015192506060860151915061571f608087016156c1565b90509295509295909350565b634e487b7160e01b600052603260045260246000fd5b60006020828403121561575357600080fd5b5051919050565b634e487b7160e01b600052601160045260246000fd5b60006000198214156157845761578461575a565b5060010190565b6000826157a857634e487b7160e01b600052601260045260246000fd5b500490565b6000828210156157bf576157bf61575a565b500390565b60008160001904831182151516156157de576157de61575a565b500290565b6000602082840312156157f557600080fd5b815161166a81614f75565b600082198211156158135761581361575a565b500190565b6001600160a01b03929092168252602082015260400190565b634e487b7160e01b600052602160045260246000fd5b60006158556150828461503e565b80848252602080830192508560051b85013681111561587357600080fd5b855b818110156106dc5780356001600160401b038111156158945760008081fd5b870136601f8201126158a65760008081fd5b6158b4368235868401615266565b865250938201938201615875565b600181811c908216806158d657607f821691505b602082108114156158f757634e487b7160e01b600052602260045260246000fd5b50919050565b6040815260006159106040830185614fa7565b82810360208401526152408185614fa7565b6000808335601e1984360301811261593957600080fd5b8301803591506001600160401b0382111561595357600080fd5b60200191503681900382131561514457600080fd5b81835281816020850137506000828201602090810191909152601f909101601f19169091010190565b6060815260006159a5606083018789615968565b82810360208401526159b8818688615968565b91505060ff831660408301529695505050505050565b6000602082840312156159e057600080fd5b815161166a81615257565b600181815b80851115615a26578160001904821115615a0c57615a0c61575a565b80851615615a1957918102915b93841c93908002906159f0565b509250929050565b600082615a3d575060016105a8565b81615a4a575060006105a8565b8160018114615a605760028114615a6a57615a86565b60019150506105a8565b60ff841115615a7b57615a7b61575a565b50506001821b6105a8565b5060208310610133831016604e8410600b8410161715615aa9575081810a6105a8565b615ab383836159eb565b8060001904821115615ac757615ac761575a565b029392505050565b600061166a60ff841683615a2e565b600060208284031215615af057600080fd5b815161166a81615249565b6020808252602b908201527f496e697469616c697a61626c653a20636f6e7472616374206973206e6f74206960408201526a6e697469616c697a696e6760a81b606082015260800190565b76020b1b1b2b9b9a1b7b73a3937b61d1030b1b1b7bab73a1604d1b815260008351615b78816017850160208801615196565b7001034b99036b4b9b9b4b733903937b6329607d1b6017918401918201528351615ba9816028840160208801615196565b01602801949350505050565b60208152600061166a60208301846151c2565b600080600060608486031215615bdd57600080fd5b8351615be881614f75565b6020850151909350615bf981614f75565b80925050604084015190509250925092565b60008251615c1d818460208701615196565b9190910192915050565b604081526000615c3a60408301856151c2565b828103602084015261524081856151c2565b6020810160038310615c6e57634e487b7160e01b600052602160045260246000fd5b91905290565b600081615c8357615c8361575a565b506000190190565b634e487b7160e01b600052603160045260246000fdfe3fc733b4d20d27a28452ddf0e9351aced28242fe03389a653cdb783955316b9b17a8e30262c1f919c33056d877a3c22b95c2f5e4dac44683c1c2323cd79fbdb0a2646970667358221220c67526d87a8d6e448796b84c1e2d941a7d251820cfd50e89dd9f7718c2992dd264736f6c63430008080033",
  "linkReferences": {},
  "deployedLinkReferences": {}
}